{
  "contractName": "HelloPocteo",
  "abi": [
    {
      "constant": true,
      "inputs": [
        {
          "name": "name",
          "type": "string"
        }
      ],
      "name": "SayHello",
      "outputs": [
        {
          "name": "",
          "type": "string"
        }
      ],
      "payable": false,
      "stateMutability": "pure",
      "type": "function",
      "signature": "0x0739fb87"
    }
  ],
  "bytecode": "0x608060405234801561001057600080fd5b50610279806100206000396000f3fe608060405260043610610041576000357c0100000000000000000000000000000000000000000000000000000000900463ffffffff1680630739fb8714610046575b600080fd5b34801561005257600080fd5b5061010c6004803603602081101561006957600080fd5b810190808035906020019064010000000081111561008657600080fd5b82018360208201111561009857600080fd5b803590602001918460018302840111640100000000831117156100ba57600080fd5b91908080601f016020809104026020016040519081016040528093929190818152602001838380828437600081840152601f19601f820116905080830192505050505050509192919290505050610187565b6040518080602001828103825283818151815260200191508051906020019080838360005b8381101561014c578082015181840152602081019050610131565b50505050905090810190601f1680156101795780820380516001836020036101000a031916815260200191505b509250505060405180910390f35b60608160405160200180807f48656c6c6f20000000000000000000000000000000000000000000000000000081525060060182805190602001908083835b6020831015156101ea57805182526020820191506020810190506020830392506101c5565b6001836020036101000a038019825116818451168082178552505050505050905001807f2057656c636f6d6520746f20506f6374656f2000000000000000000000000000815250601301915050604051602081830303815290604052905091905056fea165627a7a72305820460c94847f295e64555818747b3656c1085a927ad890eda0aba35b05697baf0f0029",
  "source": "pragma solidity ^0.5.0;\n\ncontract HelloPocteo{\n\n    function SayHello(string memory name)public pure returns(string memory){\n        return string(abi.encodePacked(\"Hello \",name,\" Welcome to Pocteo \"));\n      \n    }\n}",
  "sourcePath": "/home/abir/dapp-k8s/contracts/HelloPocteo.sol",
  "compiler": {
    "name": "solc",
    "version": "0.5.0+commit.1d4f565a.Emscripten.clang"
  },
  "schemaVersion": "3.0.2",
  "updatedAt": "2019-08-07T08:36:22.782Z",
  "devdoc": {
    "methods": {}
  },
  "userdoc": {
    "methods": {}
  }
}